No.     Time                       Source                Destination           Protocol Info
  33603 2008-11-09 22:08:22.758106 140.221.251.250       68.142.196.63         DNS      Standard query A media.adrevolver.com

Frame 33603 (95 bytes on wire, 95 bytes captured)
    Arrival Time: Nov  9, 2008 22:08:22.758106000
    [Time delta from previous captured frame: 0.025159000 seconds]
    [Time delta from previous displayed frame: 0.362256000 seconds]
    [Time since reference or first frame: 246.720927000 seconds]
    Frame Number: 33603
    Frame Length: 95 bytes
    Capture Length: 95 bytes
    [Frame is marked: False]
    [Protocols in frame: eth:vlan:ip:udp:dns]
    [Coloring Rule Name: UDP]
    [Coloring Rule String: udp]
Ethernet II, Src: JuniperN_92:48:7e (00:1d:b5:92:48:7e), Dst: JuniperN_75:e4:9d (00:90:69:75:e4:9d)
    Destination: JuniperN_75:e4:9d (00:90:69:75:e4:9d)
        Address: JuniperN_75:e4:9d (00:90:69:75:e4:9d)
        .... ...0 .... .... .... .... = IG bit: Individual address (unicast)
        .... ..0. .... .... .... .... = LG bit: Globally unique address (factory default)
    Source: JuniperN_92:48:7e (00:1d:b5:92:48:7e)
        Address: JuniperN_92:48:7e (00:1d:b5:92:48:7e)
        .... ...0 .... .... .... .... = IG bit: Individual address (unicast)
        .... ..0. .... .... .... .... = LG bit: Globally unique address (factory default)
    Type: 802.1Q Virtual LAN (0x8100)
802.1Q Virtual LAN, PRI: 0, CFI: 0, ID: 521
    000. .... .... .... = Priority: 0
    ...0 .... .... .... = CFI: 0
    .... 0010 0000 1001 = ID: 521
    Type: IP (0x0800)
Internet Protocol, Src: 140.221.251.250 (140.221.251.250), Dst: 68.142.196.63 (68.142.196.63)
    Version: 4
    Header length: 20 bytes
    Differentiated Services Field: 0x00 (DSCP 0x00: Default; ECN: 0x00)
        0000 00.. = Differentiated Services Codepoint: Default (0x00)
        .... ..0. = ECN-Capable Transport (ECT): 0
        .... ...0 = ECN-CE: 0
    Total Length: 77
    Identification: 0xf6a2 (63138)
    Flags: 0x00
        0... = Reserved bit: Not set
        .0.. = Don't fragment: Not set
        ..0. = More fragments: Not set
    Fragment offset: 0
    Time to live: 62
    Protocol: UDP (0x11)
    Header checksum: 0xf457 [correct]
        [Good: True]
        [Bad : False]
    Source: 140.221.251.250 (140.221.251.250)
    Destination: 68.142.196.63 (68.142.196.63)
User Datagram Protocol, Src Port: 5609 (5609), Dst Port: domain (53)
    Source port: 5609 (5609)
    Destination port: domain (53)
    Length: 57
    Checksum: 0x1491 [correct]
        [Good Checksum: True]
        [Bad Checksum: False]
Domain Name System (query)
    [Response In: 33604]
    Transaction ID: 0x48d1
    Flags: 0x0000 (Standard query)
        0... .... .... .... = Response: Message is a query
        .000 0... .... .... = Opcode: Standard query (0)
        .... ..0. .... .... = Truncated: Message is not truncated
        .... ...0 .... .... = Recursion desired: Don't do query recursively
        .... .... .0.. .... = Z: reserved (0)
        .... .... ...0 .... = Non-authenticated data OK: Non-authenticated data is unacceptable
    Questions: 1
    Answer RRs: 0
    Authority RRs: 0
    Additional RRs: 1
    Queries
        media.adrevolver.com: type A, class IN
            Name: media.adrevolver.com
            Type: A (Host address)
            Class: IN (0x0001)
    Additional records
        <Root>: type OPT
            Name: <Root>
            Type: OPT (EDNS0 option)
            UDP payload size: 4096
            Higher bits in extended RCODE: 0x0
            EDNS0 version: 0
            Z: 0x8000
                Bit 0 (DO bit): 1 (Accepts DNSSEC security RRs)
                Bits 1-15: 0x0 (reserved)
            Data length: 0

0000  00 90 69 75 e4 9d 00 1d b5 92 48 7e 81 00 02 09   ..iu......H~....
0010  08 00 45 00 00 4d f6 a2 00 00 3e 11 f4 57 8c dd   ..E..M....>..W..
0020  fb fa 44 8e c4 3f 15 e9 00 35 00 39 14 91 48 d1   ..D..?...5.9..H.
0030  00 00 00 01 00 00 00 00 00 01 05 6d 65 64 69 61   ...........media
0040  0a 61 64 72 65 76 6f 6c 76 65 72 03 63 6f 6d 00   .adrevolver.com.
0050  00 01 00 01 00 00 29 10 00 00 00 80 00 00 00      ......)........
